:020000040800F2
:100000000028002009170008991300089F13000812
:10001000A5130008AB130008B1130008000000008E
:10002000000000000000000000000000B7130008FE
:10003000C313000800000000CF130008DB13000802
:1000400051170008511700085117000851170008F0
:1000500051170008511700085117000851170008E0
:1000600051170008511700085117000851170008D0
:1000700051170008511700085117000851170008C0
:1000800051170008511700085117000851170008B0
:1000900051170008511700085117000851170008A0
:1000A0005117000851170008511700085117000890
:1000B000E91300085117000800000000511700085C
:1000C0005117000800000000000000005117000850
:1000D0000000000051170008511700080000000040
:1000E00051170008511700085117000800000000C0
:1000F0000000000000000000000000000000000000
:0C01000000000000000000005FF808F1A3
:10010C0010B5054C237833B9044B13B10448AFF345
:10011C0000800123237010BD580000200000000057
:10012C00802D000808B5034B1BB103490348AFF3FE
:10013C00008008BD000000005C000020802D00083D
:10014C0080B483B000AF7860094A7B6852F82330E2
:10015C00012B06D1064A7B68002142F823100123AB
:10016C0000E0002318460C37BD4680BC704700BF2A
:10017C007400002080B582B000AF00237B6012E0D9
:10018C00444A7B6852F8232043497B6841F823207A
:10019C00424A7B6852F823203E497B6841F8232071
:1001AC007B6801337B607B68022BE9DD04213C48D2
:1001BC0001F0B4FD03461A46384B1A600821384842
:1001CC0001F0ACFD03461A46344B5A6010213448FA
:1001DC0001F0A4FD03461A46304B9A6000233B60A5
:1001EC0050E02C4A3B6852F823202C493B6851F8CC
:1001FC0023309A4243D1274A3B6852F823202649A0
:10020C003B6851F823309A4239D1234A3B6852F863
:10021C00232024493B6851F823309A4217D01E4AB8
:10022C003B6852F823201F493B6841F823201D4AA4
:10023C003B6852F82330002B21D11B4B4FF4FA7240
:10024C001A601A4A3B68012142F8231017E0164B3A
:10025C001B68013B144A1360134B1B68002B0ED117
:10026C00114B4FF4FA721A600E4A3B6852F8233065
:10027C00002B04D10D4A3B68012142F823103B6846
:10028C0001333B603B68022BABDD00BF00BF08377E
:10029C00BD4680BD0C00002018000020000000208E
:1002AC0000080140240000203000002074000020D1
:1002BC0080B500AFA44B1B68013B042B00F2768188
:1002CC0001A252F823F000BFE90200080103000864
:1002DC009D0300083F040008E10400089B4B1B68C9
:1002EC00642202FB03F3184600F07CFF964B0222BB
:1002FC001A605BE101F082F8954B1B68012B0AD167
:10030C00944B1B68642202FB03F3184600F06AFF4F
:10031C008D4B03221A600020FFF712FF0346012BBE
:10032C0002D1894B0F221A608B4B1B68012B40F0BA
:10033C003681322000F07EFF884B1B68002B10D1D9
:10034C00874B1B685A1E86490A60184600F0BCFD94
:10035C00834B1B68002B14D1824B1B68804A1360A3
:10036C000FE07A4B1B685A1E78490A60184600F059
:10037C00ABFD764B1B68002B03D17B4B1B68734A80
:10038C001360764B1B68C3F10103744A136006E1DA
:10039C0001F05EF86E4B1B68012B0AD16B4B1B688E
:1003AC00642202FB03F3184600F01CFF664B042288
:1003BC001A600020FFF7C4FE0346012B05D1624BE7
:1003CC000F221A60C82000F00DFF634B1B68012B35
:1003DC0040F0E780322000F02DFF604B1B68002BB3
:1003EC0010D15F4B1B685A1E5D490A60184600F01D
:1003FC006BFD5B4B1B68002B14D15A4B1B68584A86
:10040C0013600FE0534B1B685A1E52490A60184682
:10041C0000F05AFD4F4B1B68002B03D1534B1B684C
:10042C004C4A13604D4B1B68C3F101034B4A1360DC
:10043C00B7E001F037F8464B1B68012B0AD1454B4E
:10044C001B68642202FB03F3184600F0CBFE3E4B04
:10045C0005221A600020FFF773FE0346012B05D11D
:10046C00394B0F221A60C82000F0BCFE3A4B1B68B7
:10047C00012B40F09880322000F0DCFE374B1B68DB
:10048C00002B10D1364B1B685A1E35490A60184692
:10049C0000F01AFD324B1B68002B14D1314B1B683A
:1004AC002F4A13600FE0294B1B685A1E27490A601C
:1004BC00184600F009FD254B1B68002B03D12A4B75
:1004CC001B68224A1360254B1B68C3F10103234AA6
:1004DC00136068E001F010F81D4B1B68012B0AD16A
:1004EC001A4B1B68642202FB03F3184600F07AFED9
:1004FC00154B02221A600020FFF722FE0346012B47
:10050C0005D1114B0F221A60C82000F06BFE124B64
:10051C001B68012B49D1322000F08CFE0F4B1B685D
:10052C00002B25D10E4B1B685A1E0D490A6018462C
:10053C0000F0CAFC0A4B1B68002B29D1094B1B6825
:10054C00074A136024E000BF800000203800002020
:10055C008C0000203C0000209C0000208400002027
:10056C0034000020400000204400002048000020FF
:10057C000F4B1B685A1E0E490A60184600F0A4FC6B
:10058C000B4B1B68002B03D10A4B1B68084A1360EA
:10059C00094B1B68C3F10103074A136005E000BF58
:1005AC0004E000BF02E000BF00E000BF00BF80BD60
:1005BC003C000020480000208400002080B500AFE3
:1005CC008B4B1B680C3B032B00F20B8101A252F8E6
:1005DC0023F000BF3106000829070008AD0600080B
:1005EC00F105000800F0B2FF642000F0FBFD804B29
:1005FC000C221A600020FFF7A3FD0346012B05D146
:10060C007B4B0C221A60C82000F0ECFD794B1B6868
:10061C00012B40F0E880764B0C221A60C82000F0C9
:10062C00E1FDE0E000F0EEFF0020FFF789FD03465E
:10063C00012B05D16E4B0E221A60C82000F0D2FDA2
:10064C006D4B1B68012B15D16C4B1B68002B03D118
:10065C00022000F039FC04E0694B1B68184600F0DE
:10066C0033FC322000F0E6FD644B1B68C3F1010340
:10067C00624A13600120FFF763FD0346012B0BD187
:10068C005F4B1B6801335E4A13605D4B1B68632B29
:10069C0002DD5B4B02221A600220FFF751FDA5E040
:1006AC0000F0FAFF0020FFF74BFD0346012B05D1AC
:1006BC004F4B0D221A60C82000F094FD4E4B1B6866
:1006CC00012B15D14D4B1B68002B03D1032000F0DF
:1006DC00FBFB04E04B4B1B68184600F0F5FB32208B
:1006EC0000F0A8FD454B1B68C3F10103434A13609E
:1006FC000120FFF725FD0346012B0BD1414B1B6855
:10070C000133404A13603F4B1B68632B02DD3D4BAA
:10071C0001221A600220FFF713FD67E000F040FF92
:10072C000020FFF70DFD0346012B05D1304B0122B4
:10073C001A60C82000F056FD2F4B1B68012B15D1F9
:10074C002E4B1B68002B03D1042000F0BDFB04E0F2
:10075C002D4B1B68184600F0B7FB322000F06AFDE9
:10076C00264B1B68C3F10103244A13600120FFF7D9
:10077C00E7FC0346012B0BD1234B1B680133224AA8
:10078C001360214B1B68632B02DD1F4B01221A6087
:10079C000220FFF7D5FC0346012B26D11A4B1A6811
:1007AC00184B1B681A44164B1B689A420CD1164BFB
:1007BC001B68164A1360124B1B68154A1360114BC9
:1007CC001B68144A136010E0114B1B680C4A136031
:1007DC00104B1B680B4A13600C4B1B680A4A1360C6
:1007EC0003E000BF02E000BF00E000BF00BF80BD1F
:1007FC00800000208C0000209C0000208400002041
:10080C004000002048000020440000203800002058
:10081C00340000203C00002080B582B000AF78602E
:10082C007B68092B00F2808101A252F823F000BFF3
:10083C0065080008AD080008F50800083D09000827
:10084C0085090008CD090008150A00085D0A000892
:10085C00A50A0008ED0A000800220121B44801F0A5
:10086C0074FA00220221B24801F06FFA002204212E
:10087C00AF4801F06AFA00220821AD4801F065FA90
:10088C0000221021AA4801F060FA00222021A84879
:10089C0001F05BFA01224021A54801F056FA43E130
:1008AC0001220121A24801F050FA00220221A048A5
:1008BC0001F04BFA002204219D4801F046FA012276
:1008CC0008219B4801F041FA01221021984801F0BF
:1008DC003CFA01222021964801F037FA01224021EE
:1008EC00934801F032FA1FE100220121904801F0F7
:1008FC002CFA002202218E4801F027FA0122042151
:10090C008B4801F022FA00220821894801F01DFAD7
:10091C0000221021864801F018FA01222021844877
:10092C0001F013FA00224021814801F00EFAFBE09D
:10093C00002201217E4801F008FA002202217C48A5
:10094C0001F003FA00220421794801F0FEF900229B
:10095C000821774801F0F9F901221021744801F0BF
:10096C00F4F901222021724801F0EFF90022402114
:10097C006F4801F0EAF9D7E0012201216C4801F03F
:10098C00E4F9002202216A4801F0DFF90022042177
:10099C00674801F0DAF901220821654801F0D5F920
:1009AC0001221021624801F0D0F900222021604878
:1009BC0001F0CBF9002240215D4801F0C6F9B3E00B
:1009CC00002201215A4801F0C0F9012202215848A5
:1009DC0001F0BBF900220421554801F0B6F90022C0
:1009EC000821534801F0B1F901221021504801F0BF
:1009FC00ACF9002220214E4801F0A7F90022402139
:100A0C004B4801F0A2F98FE000220121484801F087
:100A1C009CF901220221464801F097F90022042199
:100A2C00434801F092F900220821414801F08DF968
:100A3C00002210213E4801F088F9002220213C4878
:100A4C0001F083F900224021394801F07EF96BE076
:100A5C0000220121364801F078F9002202213448A5
:100A6C0001F073F900220421314801F06EF90122E2
:100A7C0008212F4801F069F9012210212C4801F0BE
:100A8C0064F9012220212A4801F05FF9012240215A
:100A9C00274801F05AF947E000220121244801F0CF
:100AAC0054F900220221224801F04FF900220421BE
:100ABC001F4801F04AF9002208211D4801F045F9B0
:100ACC00002210211A4801F040F900222021184878
:100ADC0001F03BF900224021154801F036F923E0E2
:100AEC0000220121124801F030F9002202211048A5
:100AFC0001F02BF9002204210D4801F026F9002207
:100B0C0008210B4801F021F901221021084801F0BD
:100B1C001CF900222021064801F017F9002240217F
:100B2C00034801F012F900BF00BF0837BD4680BD75
:100B3C00000C014080B582B000AF78607B68092B57
:100B4C0000F2BC8101A252F823F000BF810B000817
:100B5C00D50B0008290C00087D0C0008D10C0008EE
:100B6C00250D0008790D0008CD0D0008210E000898
:100B7C00750E000800228021D24801F0E6F8002210
:100B8C004FF48071CF4801F0E0F800224FF400716F
:100B9C00CC4801F0DAF800224FF48061C94801F02A
:100BAC00D4F800224FF40061C64801F0CEF80022C0
:100BBC004FF48051C34801F0C8F801224FF40051A2
:100BCC00C04801F0C2F879E101228021BD4801F052
:100BDC00BCF800224FF48071BA4801F0B6F800223C
:100BEC004FF40071B74801F0B0F801224FF4806166
:100BFC00B44801F0AAF801224FF40061B14801F0A9
:100C0C00A4F801224FF48051AE4801F09EF8012265
:100C1C004FF40051AB4801F098F84FE100228021CD
:100C2C00A84801F092F800224FF48071A54801F019
:100C3C008CF801224FF40071A24801F086F80022D2
:100C4C004FF480619F4801F080F800224FF400615E
:100C5C009C4801F07AF801224FF48051994801F038
:100C6C0074F800224FF40051964801F06EF825E11B
:100C7C0000228021934801F068F800224FF4807123
:100C8C00904801F062F800224FF400718D4801F099
:100C9C005CF800224FF480618A4801F056F801227A
:100CAC004FF40061874801F050F801224FF4805155
:100CBC00844801F04AF800224FF40051814801F0B9
:100CCC0044F8FBE0012280217E4801F03EF800222E
:100CDC004FF480717B4801F038F800224FF400711A
:100CEC00784801F032F801224FF48061754801F028
:100CFC002CF801224FF40061724801F026F8002212
:100D0C004FF480516F4801F020F800224FF400514D
:100D1C006C4801F01AF8D1E000228021694801F0FA
:100D2C0014F801224FF48071664801F00EF800228D
:100D3C004FF40071634801F008F800224FF4806111
:100D4C00604801F002F801224FF400615D4800F0A8
:100D5C00FCFF00224FF480515A4800F0F6FF0022AD
:100D6C004FF40051574800F0F0FFA7E0002280211B
:100D7C00544800F0EAFF01224FF48071514800F012
:100D8C00E4FF00224FF400714E4800F0DEFF002219
:100D9C004FF480614B4800F0D8FF00224FF4006103
:100DAC00484800F0D2FF00224FF48051454800F033
:100DBC00CCFF00224FF40051424800F0C6FF7DE00A
:100DCC00002280213F4800F0C0FF00224FF48071C8
:100DDC003C4800F0BAFF00224FF40071394800F093
:100DEC00B4FF01224FF48061364800F0AEFF0122BF
:100DFC004FF40061334800F0A8FF01224FF48051FA
:100E0C00304800F0A2FF01224FF400512D4800F0B1
:100E1C009CFF53E0002280212A4800F096FF00221C
:100E2C004FF48071274800F090FF00224FF40071BE
:100E3C00244800F08AFF00224FF48061214800F022
:100E4C0084FF00224FF400611E4800F07EFF002258
:100E5C004FF480511B4800F078FF00224FF40051F2
:100E6C00184800F072FF29E000228021154800F09C
:100E7C006CFF00224FF48071124800F066FF0022D4
:100E8C004FF400710F4800F060FF00224FF48061B6
:100E9C000C4800F05AFF01224FF40061094800F0A1
:100EAC0054FF00224FF48051064800F04EFF002200
:100EBC004FF40051034800F048FF00BF00BF083753
:100ECC00BD4680BD000C014080B582B000AF78609B
:100EDC00274B1B68002B02D0012B11D043E00022C2
:100EEC004021244800F031FF01228021214800F0EC
:100EFC002CFF0020FFF790FC7868FFF71BFE32E018
:100F0C00012240211B4800F020FF002280211948BB
:100F1C0000F01BFF7B68632B0BDD7B68164A82FBA2
:100F2C0003125111DA178A1A642101FB02F29B1A7F
:100F3C007B607B68114A82FB03129210DB17D31A79
:100F4C001846FFF769FC7A680C4B83FB0213991067
:100F5C00D317C91A0B469B000B445B00D11A0846E9
:100F6C00FFF7E8FD00BF00BF0837BD4680BD00BFDE
:100F7C0084000020000801401F85EB5167666666FF
:100F8C0080B500AF00F0E0FB00F022F800F0A8F80C
:100F9C0000F05AF80B4801F035FB0B4B01221A609C
:100FAC000A4B00221A60012000F01CF9012000F00D
:100FBC002DF9012000F03EF9FFF77AF9FFF7FEFA60
:100FCC00FAE700BFA400002080000020840000206D
:100FDC0080B590B000AF07F1180328220021184605
:100FEC0001F0C0FE3B1D00221A605A609A60DA6064
:100FFC001A610223BB610123BB621023FB62002335
:10100C007B6307F11803184600F0D0FE0346002B53
:10101C0001D000F0E1F80F237B600023BB600023BC
:10102C00FB6000233B6100237B613B1D00211846C4
:10103C0001F03CF90346002B01D000F0CDF800BFC5
:10104C004037BD4680BD000080B586B000AF07F1CB
:10105C00080300221A605A609A60DA603B4600224C
:10106C001A605A601D4B4FF080421A601B4B41F6C0
:10107C003F725A60194B00229A60184B0922DA60B1
:10108C00164B00221A61154B00229A61134801F08D
:10109C0069FA0346002B01D000F09EF84FF4805300
:1010AC00BB6007F1080319460C4801F0E7FB034647
:1010BC00002B01D000F090F800233B6000237B60F4
:1010CC003B461946054801F0BFFD0346002B01D0F5
:1010DC0000F082F800BF1837BD4680BDA400002088
:1010EC0080B586B000AF07F1080300221A605A6081
:1010FC009A60DA602F4B9B692E4A43F0040393618C
:10110C002C4B9B6903F004037B607B68294B9B6928
:10111C00284A43F008039361264B9B6903F00803AC
:10112C003B603B68002243F6E271234800F00DFE61
:10113C00002243F6FF71214800F007FE43F6C2730C
:10114C00BB600123FB6000233B6102237B6107F141
:10115C0008031946184800F067FC1C23BB600023E9
:10116C00FB6001233B6107F108031946124800F0AC
:10117C005BFC2023BB600123FB6001233B6102234A
:10118C007B6107F1080319460B4800F04DFC43F650
:10119C00FF73BB600123FB6000233B6102237B6177
:1011AC0007F108031946054800F03EFC00BF18374C
:1011BC00BD4680BD0010024000080140000C0140FB
:1011CC0080B582B000AF786000F048F8FEF7D2FF2F
:1011DC0000BF0837BD4680BD80B400AF72B600BFFB
:1011EC00FEE7000080B483B000AF7860054A7B68EE
:1011FC001360054B00221A6000BF0C37BD4680BC43
:10120C00704700BF880000208C00002080B483B0A1
:10121C0000AF7860054A7B681360054B00221A60AA
:10122C0000BF0C37BD4680BC704700BF900000204B
:10123C009400002080B483B000AF7860054A7B68CE
:10124C001360054B00221A6000BF0C37BD4680BCF2
:10125C00704700BF980000209C00002080B400AFB5
:10126C00194B1B68002B0BDD174B1B68013B164AF7
:10127C001360154B1B68002B02DC144B01221A6007
:10128C00134B1B68002B0BDD114B1B68013B104AE9
:10129C0013600F4B1B68002B02DC0E4B01221A60F3
:1012AC000D4B1B68002B0BDD0B4B1B68013B0A4ADB
:1012BC001360094B1B68002B02DC084B01221A60DF
:1012CC0000BFBD4680BC7047880000208C00002009
:1012DC009000002094000020980000209C0000202A
:1012EC0080B485B000AF154B9B69144A43F00103E1
:1012FC009361124B9B6903F00103BB60BB680F4BFE
:10130C00DB690E4A43F08053D3610C4BDB6903F06D
:10131C0080537B607B680A4B5B68FB60FB6823F047
:10132C00E063FB60FB6843F08063FB60044AFB688E
:10133C00536000BF1437BD4680BC7047001002409C
:10134C000000014080B584B000AF78607B681B68FA
:10135C00B3F1804F13D10C4BDB690B4A43F0010303
:10136C00D361094BDB6903F00103FB60FB680022CE
:10137C0000211C2000F021FB1C2000F03AFB00BFD8
:10138C001037BD4680BD00BF0010024080B400AFD6
:10139C00FEE780B400AFFEE780B400AFFEE780B498
:1013AC0000AFFEE780B400AFFEE780B400AF00BF33
:1013BC00BD4680BC704780B400AF00BFBD4680BC4A
:1013CC00704780B400AF00BFBD4680BC704780B58D
:1013DC0000AF00F0FFF900BF80BD000080B500AF8A
:1013EC00024801F05BF900BF80BD00BFA4000020E3
:1013FC0080B400AF00BFBD4680BC704780B500AF65
:10140C0001224FF48071114800F09FFC01224FF42F
:10141C0000510E4800F099FC00224FF480610B48FB
:10142C0000F093FC00224FF40071084800F08DFC92
:10143C0000224FF40061054800F087FC00224FF4B5
:10144C008051024800F081FC00BF80BD00080140C3
:10145C0080B500AF01224FF48071114800F075FC8B
:10146C0001224FF480510E4800F06FFC00224FF423
:10147C0080610B4800F069FC00224FF400710848B1
:10148C0000F063FC00224FF40061054800F05DFCA5
:10149C0000224FF40051024800F057FC00BF80BD01
:1014AC000008014080B500AF01224FF48061114863
:1014BC0000F04BFC01224FF400610E4800F045FC9B
:1014CC0000224FF480710B4800F03FFC00224FF4D7
:1014DC000071084800F039FC00224FF48051054897
:1014EC0000F033FC00224FF40051024800F02DFCB8
:1014FC0000BF80BD0008014080B500AF01224FF451
:10150C000071114800F021FC01224FF400610E48DB
:10151C0000F01BFC00224FF480610B4800F015FC1E
:10152C0000224FF48071084800F00FFC00224FF4A9
:10153C008051054800F009FC00224FF4005102488C
:10154C0000F003FC00BF80BD0008014080B500AF77
:10155C0000224FF40071114800F0F7FB00224FF409
:10156C0000610E4800F0F1FB00224FF480610B4843
:10157C0000F0EBFB00224FF48071084800F0E5FB13
:10158C0000224FF48051054800F0DFFB00224FF49D
:10159C000051024800F0D9FB00BF80BD000801409B
:1015AC0080B500AF154B1B68012B0CD13220FFF717
:1015BC002DFE4FF48061124800F0DFFB4FF4005118
:1015CC000F4800F0DAFB00224FF400710C4800F0D9
:1015DC00BCFB00224FF48071094800F0B6FB0022DE
:1015EC004FF48051064800F0B0FB00224FF400612C
:1015FC00034800F0AAFB00BF80BD00BF9400002090
:10160C000008014080B500AF204B1B68012B22D194
:10161C003220FFF7FBFD1E4B1B68002B11D1002263
:10162C004FF480711B4800F090FB00224FF40061D6
:10163C00184800F08AFB164B1B68C3F10103144ACF
:10164C0013604FF48071134800F097FB4FF4006166
:10165C00104800F092FB00224FF400710D4800F08E
:10166C0074FB00224FF480610A4800F06EFB0022EC
:10167C004FF48051074800F068FB00224FF40051F2
:10168C00044800F062FB00BF80BD00BF9400002046
:10169C00A00000200008014080B500AF154B1B686E
:1016AC00012B0CD13220FFF7B1FD4FF40071124821
:1016BC0000F063FB4FF480510F4800F05EFB0022FA
:1016CC004FF480610C4800F040FB00224FF4807115
:1016DC00094800F03AFB00224FF40051064800F094
:1016EC0034FB00224FF40061034800F02EFB00BFD6
:1016FC0080BD00BF9400002000080140FFF778FE79
:10170C000B480C490C4A002302E0D458C450043353
:10171C00C4188C42F9D3094A094C002301E0136028
:10172C000432A242FBD301F0F9FAFFF729FC70470F
:10173C000000002058000020C42D00085800002094
:10174C00F0000020FEE7000080B500AF084B1B68DE
:10175C00074A43F010031360032000F023F90F2015
:10176C0000F008F8FFF7BCFD0023184680BD00BF51
:10177C000020024080B582B000AF7860124B1A682E
:10178C00124B1B7819464FF47A73B3FBF1F3B2FB8F
:10179C00F3F3184600F03BF90346002B01D001236C
:1017AC000EE07B680F2B0AD8002279684FF0FF30CF
:1017BC0000F003F9064A7B681360002300E0012364
:1017CC0018460837BD4680BD4C0000205400002050
:1017DC005000002080B400AF054B1B781A46054B17
:1017EC001B681344034A136000BFBD4680BC70479E
:1017FC0054000020EC00002080B400AF024B1B68AA
:10180C001846BD4680BC7047EC00002080B485B003
:10181C0000AF78607B6803F00703FB600C4BDB6860
:10182C00BB60BA684FF6FF031340BB60FB681A023B
:10183C00BB68134343F0BF6343F40033BB60044AFB
:10184C00BB68D36000BF1437BD4680BC704700BF77
:10185C0000ED00E080B400AF044BDB681B0A03F022
:10186C0007031846BD4680BC704700BF00ED00E082
:10187C0080B483B000AF0346FB7197F90730002B9F
:10188C000BDBFB7903F01F02064997F907305B0964
:10189C00012000FA02F241F8232000BF0C37BD46AC
:1018AC0080BC704700E100E080B483B000AF034619
:1018BC003960FB7197F90730002B0ADB3B68DAB211
:1018CC000C4997F907301201D2B20B4483F800236C
:1018DC000AE03B68DAB20849FB7903F00F03043BDA
:1018EC001201D2B20B441A7600BF0C37BD4680BC35
:1018FC00704700BF00E100E000ED00E080B489B06B
:10190C0000AFF860B9607A60FB6803F00703FB6115
:10191C00FB69C3F10703042B28BF0423BB61FB69DC
:10192C000433062B02D9FB69033B00E000237B61E7
:10193C004FF0FF32BB6902FA03F3DA43BB681A407B
:10194C007B699A404FF0FF317B6901FA03F3D9436D
:10195C007B680B40134318462437BD4680BC704748
:10196C0080B582B000AF78607B68013BB3F1807FBB
:10197C0001D301230FE00A4A7B68013B53600F211E
:10198C004FF0FF30FFF790FF054B00229A60044B9D
:10199C0007221A60002318460837BD4680BD00BFD9
:1019AC0010E000E080B582B000AF78607868FFF797
:1019BC002DFF00BF0837BD4680BD80B586B000AF97
:1019CC000346B9607A60FB7300237B61FFF742FF2B
:1019DC0078617A68B9687869FFF790FF024697F9E1
:1019EC000F3011461846FFF75FFF00BF1837BD4692
:1019FC0080BD80B582B000AF0346FB7197F907300C
:101A0C001846FFF735FF00BF0837BD4680BD80B5CF
:101A1C0082B000AF78607868FFF7A2FF03461846E3
:101A2C000837BD4680BD000080B48BB000AF786035
:101A3C00396000237B6200233B6248E101227B6A10
:101A4C0002FA03F3FB613B681B68FA691340BB6144
:101A5C00BA69FB699A4240F037813B685B68A34ADC
:101A6C0093425ED0A14A934275D8A14A934258D072
:101A7C009F4A93426FD89F4A934252D09D4A9342B9
:101A8C0069D89D4A93424CD09B4A934263D89B4A57
:101A9C00934246D0994A93425DD8122B2AD8122BE6
:101AAC0059D801A252F823F02F1B0008091B00087B
:101ABC001B1B00085D1B0008631B0008631B000850
:101ACC00631B0008631B0008631B0008631B0008F2
:101ADC00631B0008631B0008631B0008631B0008E2
:101AEC00631B0008631B0008631B0008111B000824
:101AFC00251B0008824A934213D02CE03B68DB681C
:101B0C003B6229E03B68DB6804333B6224E03B68C2
:101B1C00DB6808333B621FE03B68DB680C333B62DD
:101B2C001AE03B689B68002B02D104233B6213E054
:101B3C003B689B68012B05D108233B627B68FA69E3
:101B4C001A6109E008233B627B68FA695A6103E079
:101B5C0000233B6200E000BFBB69FF2B01D87B6810
:101B6C0001E07B6804337B61BB69FF2B02D87B6A85
:101B7C009B0002E07B6A083B9B003B617B691A6817
:101B8C000F213B6901FA03F3DB431A40396A3B69C5
:101B9C0001FA03F31A437B691A603B685B6803F034
:101BAC008053002B00F09080564B9B69554A43F0B4
:101BBC0001039361534B9B6903F00103BB60BB684A
:101BCC00514A7B6A9B08023352F82330FB607B6AD4
:101BDC0003F003039B000F2202FA03F3DB43FA68C2
:101BEC001340FB607B68494A93420DD07B68484A9E
:101BFC00934207D07B68474A934201D1022304E009
:101C0C00032302E0012300E000237A6A02F00302BE
:101C1C0092009340FA681343FB603B497B6A9B0834
:101C2C000233FA6841F823203B685B6803F48013A5
:101C3C00002B06D0384B9A683749BB6913438B602D
:101C4C0006E0354B9A68BB69DB43334913408B6024
:101C5C003B685B6803F40013002B06D02E4BDA684C
:101C6C002D49BB691343CB6006E02B4BDA68BB698B
:101C7C00DB4329491340CB603B685B6803F40033BA
:101C8C00002B06D0244B5A682349BB6913434B6085
:101C9C0006E0214B5A68BB69DB431F4913404B607C
:101CAC003B685B6803F48033002B06D01A4B1A6830
:101CBC001949BB6913430B6006E0174B1A68BB69E3
:101CCC00DB43154913400B607B6A01337B623B6835
:101CDC001A687B6A22FA03F3002B7FF4AFAE00BFC5
:101CEC0000BF2C37BD4680BC704700BF00003210CF
:101CFC000000311000002210000021100000121012
:101D0C0000001110001002400000014000080140CA
:101D1C00000C0140001001400004014080B485B06B
:101D2C0000AF78600B467B807B689A687B88134099
:101D3C00002B02D00123FB7301E00023FB73FB7B20
:101D4C0018461437BD4680BC704780B483B000AFD2
:101D5C0078600B467B8013467B707B78002B03D01E
:101D6C007A887B681A6103E07B881A047B681A61A5
:101D7C0000BF0C37BD4680BC704780B485B000AF47
:101D8C0078600B467B807B68DB68FB607A88FB683D
:101D9C0013401A04FB68D9437B880B401A437B68B9
:101DAC001A6100BF1437BD4680BC704780B586B041
:101DBC0000AF78607B68002B01D101236CE27B685B
:101DCC001B6803F00103002B00F08780924B5B68CB
:101DDC0003F00C03042B0CD08F4B5B6803F00C034B
:101DEC00082B12D18C4B5B6803F48033B3F5803F26
:101DFC000BD1894B1B6803F40033002B6CD07B6830
:101E0C005B68002B68D1012346E27B685B68B3F505
:101E1C00803F06D1804B1B687F4A43F480331360AC
:101E2C002EE07B685B68002B0CD17B4B1B687A4ADD
:101E3C0023F480331360784B1B68774A23F4802398
:101E4C0013601DE07B685B68B3F5A02F0CD1724B5F
:101E5C001B68714A43F4802313606F4B1B686E4AF6
:101E6C0043F4803313600BE06B4B1B686A4A23F41A
:101E7C0080331360684B1B68674A23F4802313601C
:101E8C007B685B68002B13D0FFF7B6FC386108E069
:101E9C00FFF7B2FC02463B69D31A642B01D903232A
:101EAC00FAE15D4B1B6803F40033002BF0D014E017
:101EBC00FFF7A2FC386108E0FFF79EFC02463B6985
:101ECC00D31A642B01D90323E6E1534B1B6803F4AB
:101EDC000033002BF0D100E000BF7B681B6803F0DF
:101EEC000203002B63D04C4B5B6803F00C03002BFC
:101EFC000BD0494B5B6803F00C03082B1CD1464BF1
:101F0C005B6803F48033002B16D1434B1B6803F042
:101F1C000203002B05D07B681B69012B01D0012328
:101F2C00BAE13D4B1B6823F0F8027B685B69DB0070
:101F3C00394913430B603AE07B681B69002B20D0B6
:101F4C00364B01221A60FFF757FC386108E0FFF7A7
:101F5C0053FC02463B69D31A022B01D903239BE1A4
:101F6C002D4B1B6803F00203002BF0D02A4B1B688F
:101F7C0023F0F8027B685B69DB00274913430B6095
:101F8C0015E0264B00221A60FFF736FC386108E09A
:101F9C00FFF732FC02463B69D31A022B01D903230B
:101FAC007AE11D4B1B6803F00203002BF0D17B6818
:101FBC001B6803F00803002B3AD07B689B69002B4D
:101FCC0019D0174B01221A60FFF716FC386108E094
:101FDC00FFF712FC02463B69D31A022B01D90323EB
:101FEC005AE10D4B5B6A03F00203002BF0D0012089
:101FFC0000F09AFA1CE00A4B00221A60FFF7FCFB77
:10200C0038610FE0FFF7F8FB02463B69D31A022B4D
:10201C0008D9032340E100BF0010024000004242F7
:10202C00800442429E4B5B6A03F00203002BE9D111
:10203C007B681B6803F00403002B00F0A6800023D0
:10204C00FB75974BDB6903F08053002B0DD1944B40
:10205C00DB69934A43F08053D361914BDB6903F006
:10206C008053BB60BB680123FB758E4B1B6803F46C
:10207C008073002B18D18B4B1B688A4A43F48073F6
:10208C001360FFF7B9FB386108E0FFF7B5FB0246B8
:10209C003B69D31A642B01D90323FDE0814B1B68E8
:1020AC0003F48073002BF0D07B68DB68012B06D126
:1020BC007B4B1B6A7A4A43F0010313622DE07B6869
:1020CC00DB68002B0CD1764B1B6A754A23F001039D
:1020DC001362734B1B6A724A23F0040313621CE0F5
:1020EC007B68DB68052B0CD16D4B1B6A6C4A43F08B
:1020FC00040313626A4B1B6A694A43F001031362BF
:10210C000BE0674B1B6A664A23F001031362644BB6
:10211C001B6A634A23F0040313627B68DB68002BA1
:10212C0015D0FFF769FB38610AE0FFF765FB024643
:10213C003B69D31A41F28832934201D90323ABE0B5
:10214C00574B1B6A03F00203002BEED014E0FFF791
:10215C0053FB38610AE0FFF74FFB02463B69D31A89
:10216C0041F28832934201D9032395E04C4B1B6A10
:10217C0003F00203002BEED1FB7D012B05D1484B64
:10218C00DB69474A23F08053D3617B68DB69002B02
:10219C0000F08180424B5B6803F00C03082B61D08C
:1021AC007B68DB69022B46D13F4B00221A60FFF79C
:1021BC0023FB386108E0FFF71FFB02463B69D31A8B
:1021CC00022B01D9032367E0354B1B6803F0007326
:1021DC00002BF0D17B681B6AB3F5803F08D1304BE4
:1021EC005B6823F400327B689B682D4913434B607A
:1021FC002B4B5B6823F474127B68196A7B685B6AEF
:10220C000B43274913434B60274B01221A60FFF7FE
:10221C00F3FA386108E0FFF7EFFA02463B69D31A8C
:10222C00022B01D9032337E01D4B1B6803F000730D
:10223C00002BF0D02FE01C4B00221A60FFF7DCFAC9
:10224C00386108E0FFF7D8FA02463B69D31A022B33
:10225C0001D9032320E0124B1B6803F00073002B01
:10226C00F0D118E07B68DB69012B01D1012313E06D
:10227C000B4B5B68FB60FB6803F480327B681B6A6A
:10228C009A4206D1FB6803F470127B685B6A9A422F
:10229C0001D0012300E0002318461837BD4680BD4D
:1022AC0000100240007000406000424280B584B0D3
:1022BC0000AF786039607B68002B01D10123D0E03E
:1022CC006A4B1B6803F007033A689A4210D9674BB4
:1022DC001B6823F0070265493B6813430B60634B93
:1022EC001B6803F007033A689A4201D00123B8E057
:1022FC007B681B6803F00203002B20D07B681B68F3
:10230C0003F00403002B05D0594B5B68584A43F487
:10231C00E06353607B681B6803F00803002B05D057
:10232C00534B5B68524A43F460535360504B5B68A9
:10233C0023F0F0027B689B684D4913434B607B682C
:10234C001B6803F00103002B40D07B685B68012BFA
:10235C0007D1474B1B6803F40033002B15D1012325
:10236C007FE07B685B68022B07D1414B1B6803F055
:10237C000073002B09D1012373E03D4B1B6803F064
:10238C000203002B01D101236BE0394B5B6823F076
:10239C0003027B685B68364913434B60FFF72CFAEA
:1023AC00F8600AE0FFF728FA0246FB68D31A41F2FC
:1023BC008832934201D9032353E02D4B5B6803F021
:1023CC000C027B685B689B009A42EBD1274B1B6825
:1023DC0003F007033A689A4210D2244B1B6823F08F
:1023EC00070222493B6813430B60204B1B6803F028
:1023FC0007033A689A4201D0012332E07B681B68DC
:10240C0003F00403002B08D0194B5B6823F4E06243
:10241C007B68DB68164913434B607B681B6803F0D1
:10242C000803002B09D0124B5B6823F460527B68C5
:10243C001B69DB000E4913434B6000F021F8024688
:10244C000B4B5B681B0903F00F030A49CB5C22FAA8
:10245C0003F3094A1360094B1B681846FFF78AF906
:10246C00002318461037BD4680BD00BF0020024037
:10247C0000100240982D00084C0000205000002055
:10248C0080B487B000AF0023FB600023BB60002347
:10249C007B6100237B6000233B611E4B5B68FB6010
:1024AC00FB6803F00C03042B02D0082B03D027E0AD
:1024BC00194B3B6127E0FB689B0C03F00F03174A99
:1024CC00D35C7B60FB6803F48033002B10D0114B82
:1024DC005B685B0C03F00103114AD35CBB607B6847
:1024EC000D4A02FB03F2BB68B2FBF3F37B6104E021
:1024FC007B680C4A02FB03F37B617B693B6102E066
:10250C00054B3B6100BF3B6918461C37BD4680BC80
:10251C00704700BF0010024000127A00A82D00087E
:10252C00B82D000800093D0080B485B000AF78607C
:10253C000A4B1B680A4AA2FB03235B0A7A6802FB5C
:10254C0003F3FB6000BFFB685A1EFA60002BF9D145
:10255C0000BF00BF1437BD4680BC70474C00002044
:10256C00D34D621080B582B000AF78607B68002BD1
:10257C0001D1012341E07B6893F83D30DBB2002BA5
:10258C0006D17B68002283F83C207868FEF7DAFEDF
:10259C007B68022283F83D207B681A687B680433D1
:1025AC001946104600F056FA7B68012283F8462043
:1025BC007B68012283F83E207B68012283F83F2050
:1025CC007B68012283F840207B68012283F841203C
:1025DC007B68012283F842207B68012283F8432028
:1025EC007B68012283F844207B68012283F8452014
:1025FC007B68012283F83D20002318460837BD462E
:10260C0080BD000080B485B000AF78607B6893F823
:10261C003D30DBB2012B01D0012335E07B68022277
:10262C0083F83D207B681B68DA687B681B6842F086
:10263C000102DA607B681B68164A934209D07B68FA
:10264C001B68B3F1804F04D07B681B68124A93421D
:10265C0011D17B681B689B6803F00703FB60FB6868
:10266C00062B10D07B681B681A687B681B6842F0CD
:10267C0001021A6007E07B681B681A687B681B689C
:10268C0042F001021A60002318461437BD4680BC84
:10269C00704700BF002C01400004004080B584B09E
:1026AC0000AF78607B681B68DB68FB607B681B682D
:1026BC001B69BB60BB6803F00203002B20D0FB68D6
:1026CC0003F00203002B1BD07B681B686FF0020227
:1026DC001A617B6801221A777B681B689B6903F07F
:1026EC000303002B03D0786800F098F905E07868B4
:1026FC0000F08BF9786800F09AF97B6800221A7761
:10270C00BB6803F00403002B20D0FB6803F0040328
:10271C00002B1BD07B681B686FF004021A617B686E
:10272C0002221A777B681B689B6903F44073002BA9
:10273C0003D0786800F072F905E0786800F065F96C
:10274C00786800F074F97B6800221A77BB6803F094
:10275C000803002B20D0FB6803F00803002B1BD0D0
:10276C007B681B686FF008021A617B6804221A7779
:10277C007B681B68DB6903F00303002B03D07868CC
:10278C0000F04CF905E0786800F03FF9786800F04B
:10279C004EF97B6800221A77BB6803F01003002BFC
:1027AC0020D0FB6803F01003002B1BD07B681B6848
:1027BC006FF010021A617B6808221A777B681B681D
:1027CC00DB6903F44073002B03D0786800F026F922
:1027DC0005E0786800F019F9786800F028F97B6852
:1027EC0000221A77BB6803F00103002B0CD0FB68A6
:1027FC0003F00103002B07D07B681B686FF001020C
:10280C001A617868FEF7DCFCBB6803F08003002BD0
:10281C000CD0FB6803F08003002B07D07B681B688F
:10282C006FF080021A61786800F06FFABB6803F0F1
:10283C004003002B0CD0FB6803F04003002B07D0A7
:10284C007B681B686FF040021A61786800F0F8F83A
:10285C00BB6803F02003002B0CD0FB6803F02003B3
:10286C00002B07D07B681B686FF020021A61786818
:10287C0000F042FA00BF1037BD4680BD80B584B071
:10288C0000AF786039600023FB737B6893F83C30B1
:10289C00012B01D10223B4E07B68012283F83C2098
:1028AC007B68022283F83D207B681B689B68BB60B9
:1028BC00BB6823F07703BB60BB6823F47F43BB602A
:1028CC007B681B68BA689A603B681B68B3F5005F4D
:1028DC003ED0B3F5005F00F28780B3F5805F00F067
:1028EC008680B3F5805F7FD8702B1AD0702B7BD885
:1028FC00602B50D0602B77D8502B3CD0502B73D8FA
:10290C00402B58D0402B6FD8302B64D0302B6BD849
:10291C00202B60D0202B67D8002B5CD0102B5AD0EA
:10292C0062E07B6818683B6899683B685A683B684A
:10293C00DB6800F06AF97B681B689B68BB60BB684E
:10294C0043F07703BB607B681B68BA689A604FE002
:10295C007B6818683B6899683B685A683B68DB6819
:10296C0000F053F97B681B689A687B681B6842F41B
:10297C0080429A603CE07B6818683B6859683B6809
:10298C00DB681A4600F0CAF87B681B6850211846B1
:10299C0000F021F92CE07B6818683B6859683B68AB
:1029AC00DB681A4600F0E8F87B681B686021184663
:1029BC0000F011F91CE07B6818683B6859683B68AB
:1029CC00DB681A4600F0AAF87B681B6840211846A1
:1029DC0000F001F90CE07B681A683B681B6819462B
:1029EC00104600F0F8F803E00123FB7300E000BF91
:1029FC007B68012283F83D207B68002283F83C2011
:102A0C00FB7B18461037BD4680BD80B483B000AF49
:102A1C00786000BF0C37BD4680BC704780B483B073
:102A2C0000AF786000BF0C37BD4680BC704780B4E7
:102A3C0083B000AF786000BF0C37BD4680BC7047D8
:102A4C0080B483B000AF786000BF0C37BD4680BC4B
:102A5C007047000080B485B000AF786039607B6847
:102A6C001B68FB607B682B4A934207D07B68B3F1F1
:102A7C00804F03D07B68284A934208D1FB6823F02F
:102A8C007003FB603B685B68FA681343FB607B6810
:102A9C00204A934207D07B68B3F1804F03D07B6808
:102AAC001D4A934208D1FB6823F44073FB603B68DA
:102ABC00DB68FA681343FB60FB6823F080023B6819
:102ACC005B691343FB607B68FA681A603B689A6821
:102ADC007B68DA623B681A687B689A627B680D4A8D
:102AEC00934203D13B681A697B681A637B680122A5
:102AFC005A617B681B6903F00103002B05D07B68CE
:102B0C001B6923F001027B681A6100BF1437BD46B4
:102B1C0080BC7047002C01400004004080B487B09A
:102B2C0000AFF860B9607A60FB681B6A7B61FB6878
:102B3C001B6A23F00102FB681A62FB689B693B610C
:102B4C003B6923F0F0033B617B681B013A6913433B
:102B5C003B617B6923F00A037B617A69BB68134391
:102B6C007B61FB683A699A61FB687A691A6200BFFB
:102B7C001C37BD4680BC704780B487B000AFF8608E
:102B8C00B9607A60FB681B6A7B61FB681B6A23F087
:102B9C001002FB681A62FB689B693B613B6923F47A
:102BAC0070433B617B681B033A6913433B617B6950
:102BBC0023F0A0037B61BB681B017A6913437B6123
:102BCC00FB683A699A61FB687A691A6200BF1C3724
:102BDC00BD4680BC704780B485B000AF786039606A
:102BEC007B689B68FB60FB6823F07003FB603A68B2
:102BFC00FB68134343F00703FB607B68FA689A6039
:102C0C0000BF1437BD4680BC704780B487B000AF9E
:102C1C00F860B9607A603B60FB689B687B617B699C
:102C2C0023F47F437B613B681A027B681A43BB68C1
:102C3C0013437A6913437B61FB687A699A6000BF1E
:102C4C001C37BD4680BC704780B485B000AF78603F
:102C5C0039607B6893F83C30012B01D1022341E0B1
:102C6C007B68012283F83C207B68022283F83D209C
:102C7C007B681B685B68FB607B681B689B68BB6040
:102C8C00FB6823F07003FB603B681B68FA68134316
:102C9C00FB607B681B68FA685A607B681B68144A87
:102CAC00934209D07B681B68B3F1804F04D07B68DA
:102CBC001B68104A93420CD1BB6823F08003BB60A5
:102CCC003B685B68BA681343BB607B681B68BA6877
:102CDC009A607B68012283F83D207B68002283F890
:102CEC003C20002318461437BD4680BC704700BFFB
:102CFC00002C01400004004080B483B000AF786029
:102D0C0000BF0C37BD4680BC704780B483B000AFA9
:102D1C00786000BF0C37BD4680BC704770B500268C
:102D2C000C4D0D4C641BA410A64209D100F022F8E6
:102D3C0000260A4D0A4C641BA410A64205D170BD96
:102D4C0055F8043B98470136EEE755F8043B984795
:102D5C000136F2E7BC2D0008BC2D0008BC2D000884
:102D6C00C02D000803460244934200D1704703F87B
:102D7C00011BF9E7F8B500BFF8BC08BC9E467047CC
:0C2D8C00F8B500BFF8BC08BC9E467047BC
:102D98000000000000000000010203040607080903
:102DA80002030405060708090A0B0C0D0E0F101084
:042DB8000102000014
:042DBC0031010008D9
:042DC0000D010008F9
:102DC40001000000010000000100000001000000FB
:102DD40001000000010000000100000001000000EB
:102DE40001000000010000000100000001000000DB
:102DF400F4010000050000000300000002000000D0
:102E040005000000030000000200000000127A0028
:082E14001000000001000000A5
:0400000508001709CF
:00000001FF
